{
    "_format": "hh-sol-artifact-1",
    "contractName": "CyberKnights",
    "sourceName": "contracts/Lock.sol",
    "abi": [
        {
            "inputs": [],
            "stateMutability": "nonpayable",
            "type": "constructor"
        },
        {
            "inputs": [],
            "name": "ApprovalCallerNotOwnerNorApproved",
            "type": "error"
        },
        {
            "inputs": [],
            "name": "ApprovalQueryForNonexistentToken",
            "type": "error"
        },
        {
            "inputs": [],
            "name": "BalanceQueryForZeroAddress",
            "type": "error"
        },
        {
            "inputs": [],
            "name": "MintERC2309QuantityExceedsLimit",
            "type": "error"
        },
        {
            "inputs": [],
            "name": "MintToZeroAddress",
            "type": "error"
        },
        {
            "inputs": [],
            "name": "MintZeroQuantity",
            "type": "error"
        },
        {
            "inputs": [],
            "name": "OwnerQueryForNonexistentToken",
            "type": "error"
        },
        {
            "inputs": [],
            "name": "OwnershipNotInitializedForExtraData",
            "type": "error"
        },
        {
            "inputs": [],
            "name": "TransferCallerNotOwnerNorApproved",
            "type": "error"
        },
        {
            "inputs": [],
            "name": "TransferFromIncorrectOwner",
            "type": "error"
        },
        {
            "inputs": [],
            "name": "TransferToNonERC721ReceiverImplementer",
            "type": "error"
        },
        {
            "inputs": [],
            "name": "TransferToZeroAddress",
            "type": "error"
        },
        {
            "inputs": [],
            "name": "URIQueryForNonexistentToken",
            "type": "error"
        },
        {
            "anonymous": false,
            "inputs": [
                {
                    "indexed": true,
                    "internalType": "address",
                    "name": "owner",
                    "type": "address"
                },
                {
                    "indexed": true,
                    "internalType": "address",
                    "name": "approved",
                    "type": "address"
                },
                {
                    "indexed": true,
                    "internalType": "uint256",
                    "name": "tokenId",
                    "type": "uint256"
                }
            ],
            "name": "Approval",
            "type": "event"
        },
        {
            "anonymous": false,
            "inputs": [
                {
                    "indexed": true,
                    "internalType": "address",
                    "name": "owner",
                    "type": "address"
                },
                {
                    "indexed": true,
                    "internalType": "address",
                    "name": "operator",
                    "type": "address"
                },
                {
                    "indexed": false,
                    "internalType": "bool",
                    "name": "approved",
                    "type": "bool"
                }
            ],
            "name": "ApprovalForAll",
            "type": "event"
        },
        {
            "anonymous": false,
            "inputs": [
                {
                    "indexed": true,
                    "internalType": "uint256",
                    "name": "fromTokenId",
                    "type": "uint256"
                },
                {
                    "indexed": false,
                    "internalType": "uint256",
                    "name": "toTokenId",
                    "type": "uint256"
                },
                {
                    "indexed": true,
                    "internalType": "address",
                    "name": "from",
                    "type": "address"
                },
                {
                    "indexed": true,
                    "internalType": "address",
                    "name": "to",
                    "type": "address"
                }
            ],
            "name": "ConsecutiveTransfer",
            "type": "event"
        },
        {
            "anonymous": false,
            "inputs": [
                {
                    "indexed": true,
                    "internalType": "address",
                    "name": "previousOwner",
                    "type": "address"
                },
                {
                    "indexed": true,
                    "internalType": "address",
                    "name": "newOwner",
                    "type": "address"
                }
            ],
            "name": "OwnershipTransferred",
            "type": "event"
        },
        {
            "anonymous": false,
            "inputs": [
                {
                    "indexed": true,
                    "internalType": "address",
                    "name": "from",
                    "type": "address"
                },
                {
                    "indexed": true,
                    "internalType": "address",
                    "name": "to",
                    "type": "address"
                },
                {
                    "indexed": true,
                    "internalType": "uint256",
                    "name": "tokenId",
                    "type": "uint256"
                }
            ],
            "name": "Transfer",
            "type": "event"
        },
        {
            "inputs": [
                {
                    "internalType": "address",
                    "name": "to",
                    "type": "address"
                },
                {
                    "internalType": "uint256",
                    "name": "tokenId",
                    "type": "uint256"
                }
            ],
            "name": "approve",
            "outputs": [],
            "stateMutability": "payable",
            "type": "function"
        },
        {
            "inputs": [
                {
                    "internalType": "address",
                    "name": "owner",
                    "type": "address"
                }
            ],
            "name": "balanceOf",
            "outputs": [
                {
                    "internalType": "uint256",
                    "name": "",
                    "type": "uint256"
                }
            ],
            "stateMutability": "view",
            "type": "function"
        },
        {
            "inputs": [],
            "name": "baseExtenstion",
            "outputs": [
                {
                    "internalType": "string",
                    "name": "",
                    "type": "string"
                }
            ],
            "stateMutability": "view",
            "type": "function"
        },
        {
            "inputs": [
                {
                    "internalType": "bool",
                    "name": "_publicMintOpen",
                    "type": "bool"
                }
            ],
            "name": "editMint",
            "outputs": [],
            "stateMutability": "nonpayable",
            "type": "function"
        },
        {
            "inputs": [
                {
                    "internalType": "uint256",
                    "name": "tokenId",
                    "type": "uint256"
                }
            ],
            "name": "getApproved",
            "outputs": [
                {
                    "internalType": "address",
                    "name": "",
                    "type": "address"
                }
            ],
            "stateMutability": "view",
            "type": "function"
        },
        {
            "inputs": [],
            "name": "getTotalTokensMinted",
            "outputs": [
                {
                    "internalType": "uint256",
                    "name": "",
                    "type": "uint256"
                }
            ],
            "stateMutability": "view",
            "type": "function"
        },
        {
            "inputs": [
                {
                    "internalType": "address",
                    "name": "owner",
                    "type": "address"
                },
                {
                    "internalType": "address",
                    "name": "operator",
                    "type": "address"
                }
            ],
            "name": "isApprovedForAll",
            "outputs": [
                {
                    "internalType": "bool",
                    "name": "",
                    "type": "bool"
                }
            ],
            "stateMutability": "view",
            "type": "function"
        },
        {
            "inputs": [
                {
                    "internalType": "uint256",
                    "name": "quantity",
                    "type": "uint256"
                }
            ],
            "name": "mint",
            "outputs": [],
            "stateMutability": "payable",
            "type": "function"
        },
        {
            "inputs": [
                {
                    "internalType": "uint256",
                    "name": "quantity",
                    "type": "uint256"
                }
            ],
            "name": "mintOwner",
            "outputs": [],
            "stateMutability": "nonpayable",
            "type": "function"
        },
        {
            "inputs": [],
            "name": "mintRate",
            "outputs": [
                {
                    "internalType": "uint256",
                    "name": "",
                    "type": "uint256"
                }
            ],
            "stateMutability": "view",
            "type": "function"
        },
        {
            "inputs": [],
            "name": "name",
            "outputs": [
                {
                    "internalType": "string",
                    "name": "",
                    "type": "string"
                }
            ],
            "stateMutability": "view",
            "type": "function"
        },
        {
            "inputs": [],
            "name": "owner",
            "outputs": [
                {
                    "internalType": "address",
                    "name": "",
                    "type": "address"
                }
            ],
            "stateMutability": "view",
            "type": "function"
        },
        {
            "inputs": [
                {
                    "internalType": "uint256",
                    "name": "tokenId",
                    "type": "uint256"
                }
            ],
            "name": "ownerOf",
            "outputs": [
                {
                    "internalType": "address",
                    "name": "",
                    "type": "address"
                }
            ],
            "stateMutability": "view",
            "type": "function"
        },
        {
            "inputs": [],
            "name": "publicMintOpen",
            "outputs": [
                {
                    "internalType": "bool",
                    "name": "",
                    "type": "bool"
                }
            ],
            "stateMutability": "view",
            "type": "function"
        },
        {
            "inputs": [],
            "name": "renounceOwnership",
            "outputs": [],
            "stateMutability": "nonpayable",
            "type": "function"
        },
        {
            "inputs": [
                {
                    "internalType": "address",
                    "name": "from",
                    "type": "address"
                },
                {
                    "internalType": "address",
                    "name": "to",
                    "type": "address"
                },
                {
                    "internalType": "uint256",
                    "name": "tokenId",
                    "type": "uint256"
                }
            ],
            "name": "safeTransferFrom",
            "outputs": [],
            "stateMutability": "payable",
            "type": "function"
        },
        {
            "inputs": [
                {
                    "internalType": "address",
                    "name": "from",
                    "type": "address"
                },
                {
                    "internalType": "address",
                    "name": "to",
                    "type": "address"
                },
                {
                    "internalType": "uint256",
                    "name": "tokenId",
                    "type": "uint256"
                },
                {
                    "internalType": "bytes",
                    "name": "_data",
                    "type": "bytes"
                }
            ],
            "name": "safeTransferFrom",
            "outputs": [],
            "stateMutability": "payable",
            "type": "function"
        },
        {
            "inputs": [
                {
                    "internalType": "address",
                    "name": "operator",
                    "type": "address"
                },
                {
                    "internalType": "bool",
                    "name": "approved",
                    "type": "bool"
                }
            ],
            "name": "setApprovalForAll",
            "outputs": [],
            "stateMutability": "nonpayable",
            "type": "function"
        },
        {
            "inputs": [
                {
                    "internalType": "string",
                    "name": "baseTokenUri_",
                    "type": "string"
                }
            ],
            "name": "setBaseTokenUri",
            "outputs": [],
            "stateMutability": "nonpayable",
            "type": "function"
        },
        {
            "inputs": [
                {
                    "internalType": "uint256",
                    "name": "_mintRate",
                    "type": "uint256"
                }
            ],
            "name": "setMintRate",
            "outputs": [],
            "stateMutability": "nonpayable",
            "type": "function"
        },
        {
            "inputs": [
                {
                    "internalType": "bytes4",
                    "name": "interfaceId",
                    "type": "bytes4"
                }
            ],
            "name": "supportsInterface",
            "outputs": [
                {
                    "internalType": "bool",
                    "name": "",
                    "type": "bool"
                }
            ],
            "stateMutability": "view",
            "type": "function"
        },
        {
            "inputs": [],
            "name": "symbol",
            "outputs": [
                {
                    "internalType": "string",
                    "name": "",
                    "type": "string"
                }
            ],
            "stateMutability": "view",
            "type": "function"
        },
        {
            "inputs": [
                {
                    "internalType": "uint256",
                    "name": "tokenId_",
                    "type": "uint256"
                }
            ],
            "name": "tokenURI",
            "outputs": [
                {
                    "internalType": "string",
                    "name": "",
                    "type": "string"
                }
            ],
            "stateMutability": "view",
            "type": "function"
        },
        {
            "inputs": [],
            "name": "totalSupply",
            "outputs": [
                {
                    "internalType": "uint256",
                    "name": "",
                    "type": "uint256"
                }
            ],
            "stateMutability": "view",
            "type": "function"
        },
        {
            "inputs": [],
            "name": "totalTokensMinted",
            "outputs": [
                {
                    "internalType": "uint256",
                    "name": "",
                    "type": "uint256"
                }
            ],
            "stateMutability": "view",
            "type": "function"
        },
        {
            "inputs": [
                {
                    "internalType": "address",
                    "name": "from",
                    "type": "address"
                },
                {
                    "internalType": "address",
                    "name": "to",
                    "type": "address"
                },
                {
                    "internalType": "uint256",
                    "name": "tokenId",
                    "type": "uint256"
                }
            ],
            "name": "transferFrom",
            "outputs": [],
            "stateMutability": "payable",
            "type": "function"
        },
        {
            "inputs": [
                {
                    "internalType": "address",
                    "name": "newOwner",
                    "type": "address"
                }
            ],
            "name": "transferOwnership",
            "outputs": [],
            "stateMutability": "nonpayable",
            "type": "function"
        },
        {
            "inputs": [
                {
                    "internalType": "address",
                    "name": "_addr",
                    "type": "address"
                }
            ],
            "name": "withdraw",
            "outputs": [],
            "stateMutability": "nonpayable",
            "type": "function"
        },
        {
            "stateMutability": "payable",
            "type": "receive"
        }
    ],
    "bytecode": "0x60806040526003600955610226600a556614f604cc2cc000600b556040518060400160405280600581526020017f2e6a736f6e000000000000000000000000000000000000000000000000000000815250600d9081620000609190620004a9565b506000600f60006101000a81548160ff0219169083151502179055503480156200008957600080fd5b506040518060400160405280600c81526020017f43796265724b6e696768747300000000000000000000000000000000000000008152506040518060400160405280600381526020017f43424b00000000000000000000000000000000000000000000000000000000008152508160029081620001079190620004a9565b508060039081620001199190620004a9565b506200012a6200015860201b60201c565b600081905550505062000152620001466200016160201b60201c565b6200016960201b60201c565b62000590565b60006001905090565b600033905090565b6000600860009054906101000a900473ffffffffffffffffffffffffffffffffffffffff16905081600860006101000a81548173ffffffffffffffffffffffffffffffffffffffff021916908373ffffffffffffffffffffffffffffffffffffffff1602179055508173ffffffffffffffffffffffffffffffffffffffff168173ffffffffffffffffffffffffffffffffffffffff167f8be0079c531659141344cd1fd0a4f28419497f9722a3daafe3b4186f6b6457e060405160405180910390a35050565b600081519050919050565b7f4e487b7100000000000000000000000000000000000000000000000000000000600052604160045260246000fd5b7f4e487b7100000000000000000000000000000000000000000000000000000000600052602260045260246000fd5b60006002820490506001821680620002b157607f821691505b602082108103620002c757620002c662000269565b5b50919050565b60008190508160005260206000209050919050565b60006020601f8301049050919050565b600082821b905092915050565b600060088302620003317fffffffffffffffffffffffffffffffffffffffffffffffffffffffffffffffff82620002f2565b6200033d8683620002f2565b95508019841693508086168417925050509392505050565b6000819050919050565b6000819050919050565b60006200038a620003846200037e8462000355565b6200035f565b62000355565b9050919050565b6000819050919050565b620003a68362000369565b620003be620003b58262000391565b848454620002ff565b825550505050565b600090565b620003d5620003c6565b620003e28184846200039b565b505050565b5b818110156200040a57620003fe600082620003cb565b600181019050620003e8565b5050565b601f82111562000459576200042381620002cd565b6200042e84620002e2565b810160208510156200043e578190505b620004566200044d85620002e2565b830182620003e7565b50505b505050565b600082821c905092915050565b60006200047e600019846008026200045e565b1980831691505092915050565b60006200049983836200046b565b9150826002028217905092915050565b620004b4826200022f565b67ffffffffffffffff811115620004d057620004cf6200023a565b5b620004dc825462000298565b620004e98282856200040e565b600060209050601f8311600181146200052157600084156200050c578287015190505b6200051885826200048b565b86555062000588565b601f1984166200053186620002cd565b60005b828110156200055b5784890151825560018201915060208501945060208101905062000534565b868310156200057b578489015162000577601f8916826200046b565b8355505b6001600288020188555050505b505050505050565b612e2780620005a06000396000f3fe6080604052600436106101bb5760003560e01c80638da5cb5b116100ec578063bcc9ca5b1161008a578063d6e2575d11610064578063d6e2575d146105c2578063dbe2193f146105eb578063e985e9c514610614578063f2fde38b14610651576101c2565b8063bcc9ca5b1461052f578063c87b56dd1461055a578063ca0dcf1614610597576101c2565b806395d89b41116100c657806395d89b41146104a3578063a0712d68146104ce578063a22cb465146104ea578063b88d4fde14610513576101c2565b80638da5cb5b1461042457806395652cfa1461044f5780639585f5af14610478576101c2565b806342842e0e1161015957806370a082311161013357806370a082311461037a578063715018a6146103b75780637d549e99146103ce57806385b9b611146103f9576101c2565b806342842e0e146102f857806351cff8d9146103145780636352211e1461033d576101c2565b8063095ea7b311610195578063095ea7b31461026c57806318160ddd1461028857806323b872dd146102b357806333f88d22146102cf576101c2565b806301ffc9a7146101c757806306fdde0314610204578063081812fc1461022f576101c2565b366101c257005b600080fd5b3480156101d357600080fd5b506101ee60048036038101906101e99190611ed7565b61067a565b6040516101fb9190611f1f565b60405180910390f35b34801561021057600080fd5b5061021961070c565b6040516102269190611fca565b60405180910390f35b34801561023b57600080fd5b5061025660048036038101906102519190612022565b61079e565b6040516102639190612090565b60405180910390f35b610286600480360381019061028191906120d7565b61081d565b005b34801561029457600080fd5b5061029d610961565b6040516102aa9190612126565b60405180910390f35b6102cd60048036038101906102c89190612141565b610978565b005b3480156102db57600080fd5b506102f660048036038101906102f19190612022565b610c9a565b005b610312600480360381019061030d9190612141565b610d1f565b005b34801561032057600080fd5b5061033b60048036038101906103369190612194565b610d3f565b005b34801561034957600080fd5b50610364600480360381019061035f9190612022565b610d97565b6040516103719190612090565b60405180910390f35b34801561038657600080fd5b506103a1600480360381019061039c9190612194565b610da9565b6040516103ae9190612126565b60405180910390f35b3480156103c357600080fd5b506103cc610e61565b005b3480156103da57600080fd5b506103e3610e75565b6040516103f09190612126565b60405180910390f35b34801561040557600080fd5b5061040e610e7b565b60405161041b9190612126565b60405180910390f35b34801561043057600080fd5b50610439610e85565b6040516104469190612090565b60405180910390f35b34801561045b57600080fd5b5061047660048036038101906104719190612226565b610eaf565b005b34801561048457600080fd5b5061048d610ecd565b60405161049a9190611fca565b60405180910390f35b3480156104af57600080fd5b506104b8610f5b565b6040516104c59190611fca565b60405180910390f35b6104e860048036038101906104e39190612022565b610fed565b005b3480156104f657600080fd5b50610511600480360381019061050c919061229f565b611161565b005b61052d6004803603810190610528919061240f565b61126c565b005b34801561053b57600080fd5b506105446112df565b6040516105519190611f1f565b60405180910390f35b34801561056657600080fd5b50610581600480360381019061057c9190612022565b6112f2565b60405161058e9190611fca565b60405180910390f35b3480156105a357600080fd5b506105ac61136e565b6040516105b99190612126565b60405180910390f35b3480156105ce57600080fd5b506105e960048036038101906105e49190612492565b611374565b005b3480156105f757600080fd5b50610612600480360381019061060d9190612022565b611399565b005b34801561062057600080fd5b5061063b600480360381019061063691906124bf565b6113ab565b6040516106489190611f1f565b60405180910390f35b34801561065d57600080fd5b5061067860048036038101906106739190612194565b61143f565b005b60006301ffc9a760e01b827bffffffffffffffffffffffffffffffffffffffffffffffffffffffff191614806106d557506380ac58cd60e01b827bffffffffffffffffffffffffffffffffffffffffffffffffffffffff1916145b806107055750635b5e139f60e01b827bffffffffffffffffffffffffffffffffffffffffffffffffffffffff1916145b9050919050565b60606002805461071b9061252e565b80601f01602080910402602001604051908101604052809291908181526020018280546107479061252e565b80156107945780601f1061076957610100808354040283529160200191610794565b820191906000526020600020905b81548152906001019060200180831161077757829003601f168201915b5050505050905090565b60006107a9826114c2565b6107df576040517fcf4700e400000000000000000000000000000000000000000000000000000000815260040160405180910390fd5b6006600083815260200190815260200160002060000160009054906101000a900473ffffffffffffffffffffffffffffffffffffffff169050919050565b600061082882610d97565b90508073ffffffffffffffffffffffffffffffffffffffff16610849611521565b73ffffffffffffffffffffffffffffffffffffffff16146108ac5761087581610870611521565b6113ab565b6108ab576040517fcfb3b94200000000000000000000000000000000000000000000000000000000815260040160405180910390fd5b5b826006600084815260200190815260200160002060000160006101000a81548173ffffffffffffffffffffffffffffffffffffffff021916908373ffffffffffffffffffffffffffffffffffffffff160217905550818373ffffffffffffffffffffffffffffffffffffffff168273ffffffffffffffffffffffffffffffffffffffff167f8c5be1e5ebec7d5bd14f71427d1e84f3dd0314c0f7b2291e5b200ac8c7c3b92560405160405180910390a4505050565b600061096b611529565b6001546000540303905090565b600061098382611532565b90508373ffffffffffffffffffffffffffffffffffffffff168173ffffffffffffffffffffffffffffffffffffffff16146109ea576040517fa114810000000000000000000000000000000000000000000000000000000000815260040160405180910390fd5b6000806109f6846115fe565b91509150610a0c8187610a07611521565b611625565b610a5857610a2186610a1c611521565b6113ab565b610a57576040517f59c896be00000000000000000000000000000000000000000000000000000000815260040160405180910390fd5b5b600073ffffffffffffffffffffffffffffffffffffffff168573ffffffffffffffffffffffffffffffffffffffff1603610abe576040517fea553b3400000000000000000000000000000000000000000000000000000000815260040160405180910390fd5b610acb8686866001611669565b8015610ad657600082555b600560008773ffffffffffffffffffffffffffffffffffffffff1673ffffffffffffffffffffffffffffffffffffffff168152602001908152602001600020600081546001900391905081905550600560008673ffffffffffffffffffffffffffffffffffffffff1673ffffffffffffffffffffffffffffffffffffffff1681526020019081526020016000206000815460010191905081905550610ba485610b8088888761166f565b7c020000000000000000000000000000000000000000000000000000000017611697565b600460008681526020019081526020016000208190555060007c0200000000000000000000000000000000000000000000000000000000841603610c2a5760006001850190506000600460008381526020019081526020016000205403610c28576000548114610c27578360046000838152602001908152602001600020819055505b5b505b838573ffffffffffffffffffffffffffffffffffffffff168773ffffffffffffffffffffffffffffffffffffffff167fddf252ad1be2c89b69c2b068fc378daa952ba7f163c4a11628f55a4df523b3ef60405160405180910390a4610c9286868660016116c2565b505050505050565b610ca26116c8565b600a5481610cae610961565b610cb8919061258e565b1115610cf9576040517f08c379a0000000000000000000000000000000000000000000000000000000008152600401610cf09061260e565b60405180910390fd5b610d033382611746565b80600c6000828254610d15919061258e565b9250508190555050565b610d3a8383836040518060200160405280600081525061126c565b505050565b610d476116c8565b60004790508173ffffffffffffffffffffffffffffffffffffffff166108fc829081150290604051600060405180830381858888f19350505050158015610d92573d6000803e3d6000fd5b505050565b6000610da282611532565b9050919050565b60008073ffffffffffffffffffffffffffffffffffffffff168273ffffffffffffffffffffffffffffffffffffffff1603610e10576040517f8f4eb60400000000000000000000000000000000000000000000000000000000815260040160405180910390fd5b67ffffffffffffffff600560008473ffffffffffffffffffffffffffffffffffffffff1673ffffffffffffffffffffffffffffffffffffffff16815260200190815260200160002054169050919050565b610e696116c8565b610e736000611764565b565b600c5481565b6000600c54905090565b6000600860009054906101000a900473ffffffffffffffffffffffffffffffffffffffff16905090565b610eb76116c8565b8181600e9182610ec89291906127e5565b505050565b600d8054610eda9061252e565b80601f0160208091040260200160405190810160405280929190818152602001828054610f069061252e565b8015610f535780601f10610f2857610100808354040283529160200191610f53565b820191906000526020600020905b815481529060010190602001808311610f3657829003601f168201915b505050505081565b606060038054610f6a9061252e565b80601f0160208091040260200160405190810160405280929190818152602001828054610f969061252e565b8015610fe35780601f10610fb857610100808354040283529160200191610fe3565b820191906000526020600020905b815481529060010190602001808311610fc657829003601f168201915b5050505050905090565b600f60009054906101000a900460ff1661103c576040517f08c379a000000000000000000000000000000000000000000000000000000000815260040161103390612901565b60405180910390fd5b6009546110483361182a565b82611053919061258e565b1115611094576040517f08c379a000000000000000000000000000000000000000000000000000000000815260040161108b9061296d565b60405180910390fd5b600a54816110a0610961565b6110aa919061258e565b11156110eb576040517f08c379a00000000000000000000000000000000000000000000000000000000081526004016110e29061260e565b60405180910390fd5b80600b546110f9919061298d565b34101561113b576040517f08c379a000000000000000000000000000000000000000000000000000000000815260040161113290612a1b565b60405180910390fd5b6111453382611746565b80600c6000828254611157919061258e565b9250508190555050565b806007600061116e611521565b73ffffffffffffffffffffffffffffffffffffffff1673ffffffffffffffffffffffffffffffffffffffff16815260200190815260200160002060008473ffffffffffffffffffffffffffffffffffffffff1673ffffffffffffffffffffffffffffffffffffffff16815260200190815260200160002060006101000a81548160ff0219169083151502179055508173ffffffffffffffffffffffffffffffffffffffff1661121b611521565b73ffffffffffffffffffffffffffffffffffffffff167f17307eab39ab6107e8899845ad3d59bd9653f200f220920489ca2b5937696c31836040516112609190611f1f565b60405180910390a35050565b611277848484610978565b60008373ffffffffffffffffffffffffffffffffffffffff163b146112d9576112a284848484611881565b6112d8576040517fd1a57ed600000000000000000000000000000000000000000000000000000000815260040160405180910390fd5b5b50505050565b600f60009054906101000a900460ff1681565b60606112fd826114c2565b61133c576040517f08c379a000000000000000000000000000000000000000000000000000000000815260040161133390612a87565b60405180910390fd5b600e611347836119d1565b604051602001611358929190612bb2565b6040516020818303038152906040529050919050565b600b5481565b61137c6116c8565b80600f60006101000a81548160ff02191690831515021790555050565b6113a16116c8565b80600b8190555050565b6000600760008473ffffffffffffffffffffffffffffffffffffffff1673ffffffffffffffffffffffffffffffffffffffff16815260200190815260200160002060008373ffffffffffffffffffffffffffffffffffffffff1673ffffffffffffffffffffffffffffffffffffffff16815260200190815260200160002060009054906101000a900460ff16905092915050565b6114476116c8565b600073ffffffffffffffffffffffffffffffffffffffff168173ffffffffffffffffffffffffffffffffffffffff16036114b6576040517f08c379a00000000000000000000000000000000000000000000000000000000081526004016114ad90612c53565b60405180910390fd5b6114bf81611764565b50565b6000816114cd611529565b111580156114dc575060005482105b801561151a575060007c0100000000000000000000000000000000000000000000000000000000600460008581526020019081526020016000205416145b9050919050565b600033905090565b60006001905090565b60008082905080611541611529565b116115c7576000548110156115c65760006004600083815260200190815260200160002054905060007c01000000000000000000000000000000000000000000000000000000008216036115c4575b600081036115ba576004600083600190039350838152602001908152602001600020549050611590565b80925050506115f9565b505b5b6040517fdf2d9b4200000000000000000000000000000000000000000000000000000000815260040160405180910390fd5b919050565b60008060006006600085815260200190815260200160002090508092508254915050915091565b600073ffffffffffffffffffffffffffffffffffffffff8316925073ffffffffffffffffffffffffffffffffffffffff821691508382148383141790509392505050565b50505050565b60008060e883901c905060e8611686868684611a9f565b62ffffff16901b9150509392505050565b600073ffffffffffffffffffffffffffffffffffffffff83169250814260a01b178317905092915050565b50505050565b6116d0611aa8565b73ffffffffffffffffffffffffffffffffffffffff166116ee610e85565b73ffffffffffffffffffffffffffffffffffffffff1614611744576040517f08c379a000000000000000000000000000000000000000000000000000000000815260040161173b90612cbf565b60405180910390fd5b565b611760828260405180602001604052806000815250611ab0565b5050565b6000600860009054906101000a900473ffffffffffffffffffffffffffffffffffffffff16905081600860006101000a81548173ffffffffffffffffffffffffffffffffffffffff021916908373ffffffffffffffffffffffffffffffffffffffff1602179055508173ffffffffffffffffffffffffffffffffffffffff168173ffffffffffffffffffffffffffffffffffffffff167f8be0079c531659141344cd1fd0a4f28419497f9722a3daafe3b4186f6b6457e060405160405180910390a35050565b600067ffffffffffffffff6040600560008573ffffffffffffffffffffffffffffffffffffffff1673ffffffffffffffffffffffffffffffffffffffff16815260200190815260200160002054901c169050919050565b60008373ffffffffffffffffffffffffffffffffffffffff1663150b7a026118a7611521565b8786866040518563ffffffff1660e01b81526004016118c99493929190612d34565b6020604051808303816000875af192505050801561190557506040513d601f19601f820116820180604052508101906119029190612d95565b60015b61197e573d8060008114611935576040519150601f19603f3d011682016040523d82523d6000602084013e61193a565b606091505b506000815103611976576040517fd1a57ed600000000000000000000000000000000000000000000000000000000815260040160405180910390fd5b805181602001fd5b63150b7a0260e01b7bffffffffffffffffffffffffffffffffffffffffffffffffffffffff1916817bffffffffffffffffffffffffffffffffffffffffffffffffffffffff191614915050949350505050565b6060600060016119e084611b4d565b01905060008167ffffffffffffffff8111156119ff576119fe6122e4565b5b6040519080825280601f01601f191660200182016040528015611a315781602001600182028036833780820191505090505b509050600082602001820190505b600115611a94578080600190039150507f3031323334353637383961626364656600000000000000000000000000000000600a86061a8153600a8581611a8857611a87612dc2565b5b04945060008503611a3f575b819350505050919050565b60009392505050565b600033905090565b611aba8383611ca0565b60008373ffffffffffffffffffffffffffffffffffffffff163b14611b4857600080549050600083820390505b611afa6000868380600101945086611881565b611b30576040517fd1a57ed600000000000000000000000000000000000000000000000000000000815260040160405180910390fd5b818110611ae7578160005414611b4557600080fd5b50505b505050565b600080600090507a184f03e93ff9f4daa797ed6e38ed64bf6a1f0100000000000000008310611bab577a184f03e93ff9f4daa797ed6e38ed64bf6a1f0100000000000000008381611ba157611ba0612dc2565b5b0492506040810190505b6d04ee2d6d415b85acef81000000008310611be8576d04ee2d6d415b85acef81000000008381611bde57611bdd612dc2565b5b0492506020810190505b662386f26fc100008310611c1757662386f26fc100008381611c0d57611c0c612dc2565b5b0492506010810190505b6305f5e1008310611c40576305f5e1008381611c3657611c35612dc2565b5b0492506008810190505b6127108310611c65576127108381611c5b57611c5a612dc2565b5b0492506004810190505b60648310611c885760648381611c7e57611c7d612dc2565b5b0492506002810190505b600a8310611c97576001810190505b80915050919050565b60008054905060008203611ce0576040517fb562e8dd00000000000000000000000000000000000000000000000000000000815260040160405180910390fd5b611ced6000848385611669565b600160406001901b178202600560008573ffffffffffffffffffffffffffffffffffffffff1673ffffffffffffffffffffffffffffffffffffffff16815260200190815260200160002060008282540192505081905550611d6483611d55600086600061166f565b611d5e85611e5b565b17611697565b6004600083815260200190815260200160002081905550600080838301905073ffffffffffffffffffffffffffffffffffffffff85169150828260007fddf252ad1be2c89b69c2b068fc378daa952ba7f163c4a11628f55a4df523b3ef600080a4600183015b818114611e0557808360007fddf252ad1be2c89b69c2b068fc378daa952ba7f163c4a11628f55a4df523b3ef600080a4600181019050611dca565b5060008203611e40576040517f2e07630000000000000000000000000000000000000000000000000000000000815260040160405180910390fd5b806000819055505050611e5660008483856116c2565b505050565b60006001821460e11b9050919050565b6000604051905090565b600080fd5b600080fd5b60007fffffffff0000000000000000000000000000000000000000000000000000000082169050919050565b611eb481611e7f565b8114611ebf57600080fd5b50565b600081359050611ed181611eab565b92915050565b600060208284031215611eed57611eec611e75565b5b6000611efb84828501611ec2565b91505092915050565b60008115159050919050565b611f1981611f04565b82525050565b6000602082019050611f346000830184611f10565b92915050565b600081519050919050565b600082825260208201905092915050565b60005b83811015611f74578082015181840152602081019050611f59565b60008484015250505050565b6000601f19601f8301169050919050565b6000611f9c82611f3a565b611fa68185611f45565b9350611fb6818560208601611f56565b611fbf81611f80565b840191505092915050565b60006020820190508181036000830152611fe48184611f91565b905092915050565b6000819050919050565b611fff81611fec565b811461200a57600080fd5b50565b60008135905061201c81611ff6565b92915050565b60006020828403121561203857612037611e75565b5b60006120468482850161200d565b91505092915050565b600073ffffffffffffffffffffffffffffffffffffffff82169050919050565b600061207a8261204f565b9050919050565b61208a8161206f565b82525050565b60006020820190506120a56000830184612081565b92915050565b6120b48161206f565b81146120bf57600080fd5b50565b6000813590506120d1816120ab565b92915050565b600080604083850312156120ee576120ed611e75565b5b60006120fc858286016120c2565b925050602061210d8582860161200d565b9150509250929050565b61212081611fec565b82525050565b600060208201905061213b6000830184612117565b92915050565b60008060006060848603121561215a57612159611e75565b5b6000612168868287016120c2565b9350506020612179868287016120c2565b925050604061218a8682870161200d565b9150509250925092565b6000602082840312156121aa576121a9611e75565b5b60006121b8848285016120c2565b91505092915050565b600080fd5b600080fd5b600080fd5b60008083601f8401126121e6576121e56121c1565b5b8235905067ffffffffffffffff811115612203576122026121c6565b5b60208301915083600182028301111561221f5761221e6121cb565b5b9250929050565b6000806020838503121561223d5761223c611e75565b5b600083013567ffffffffffffffff81111561225b5761225a611e7a565b5b612267858286016121d0565b92509250509250929050565b61227c81611f04565b811461228757600080fd5b50565b60008135905061229981612273565b92915050565b600080604083850312156122b6576122b5611e75565b5b60006122c4858286016120c2565b92505060206122d58582860161228a565b9150509250929050565b600080fd5b7f4e487b7100000000000000000000000000000000000000000000000000000000600052604160045260246000fd5b61231c82611f80565b810181811067ffffffffffffffff8211171561233b5761233a6122e4565b5b80604052505050565b600061234e611e6b565b905061235a8282612313565b919050565b600067ffffffffffffffff82111561237a576123796122e4565b5b61238382611f80565b9050602081019050919050565b82818337600083830152505050565b60006123b26123ad8461235f565b612344565b9050828152602081018484840111156123ce576123cd6122df565b5b6123d9848285612390565b509392505050565b600082601f8301126123f6576123f56121c1565b5b813561240684826020860161239f565b91505092915050565b6000806000806080858703121561242957612428611e75565b5b6000612437878288016120c2565b9450506020612448878288016120c2565b93505060406124598782880161200d565b925050606085013567ffffffffffffffff81111561247a57612479611e7a565b5b612486878288016123e1565b91505092959194509250565b6000602082840312156124a8576124a7611e75565b5b60006124b68482850161228a565b91505092915050565b600080604083850312156124d6576124d5611e75565b5b60006124e4858286016120c2565b92505060206124f5858286016120c2565b9150509250929050565b7f4e487b7100000000000000000000000000000000000000000000000000000000600052602260045260246000fd5b6000600282049050600182168061254657607f821691505b602082108103612559576125586124ff565b5b50919050565b7f4e487b7100000000000000000000000000000000000000000000000000000000600052601160045260246000fd5b600061259982611fec565b91506125a483611fec565b92508282019050808211156125bc576125bb61255f565b5b92915050565b7f534f4c44204f5554210000000000000000000000000000000000000000000000600082015250565b60006125f8600983611f45565b9150612603826125c2565b602082019050919050565b60006020820190508181036000830152612627816125eb565b9050919050565b600082905092915050565b60008190508160005260206000209050919050565b60006020601f8301049050919050565b600082821b905092915050565b60006008830261269b7fffffffffffffffffffffffffffffffffffffffffffffffffffffffffffffffff8261265e565b6126a5868361265e565b95508019841693508086168417925050509392505050565b6000819050919050565b60006126e26126dd6126d884611fec565b6126bd565b611fec565b9050919050565b6000819050919050565b6126fc836126c7565b612710612708826126e9565b84845461266b565b825550505050565b600090565b612725612718565b6127308184846126f3565b505050565b5b818110156127545761274960008261271d565b600181019050612736565b5050565b601f8211156127995761276a81612639565b6127738461264e565b81016020851015612782578190505b61279661278e8561264e565b830182612735565b50505b505050565b600082821c905092915050565b60006127bc6000198460080261279e565b1980831691505092915050565b60006127d583836127ab565b9150826002028217905092915050565b6127ef838361262e565b67ffffffffffffffff811115612808576128076122e4565b5b612812825461252e565b61281d828285612758565b6000601f83116001811461284c576000841561283a578287013590505b61284485826127c9565b8655506128ac565b601f19841661285a86612639565b60005b828110156128825784890135825560018201915060208501945060208101905061285d565b8683101561289f578489013561289b601f8916826127ab565b8355505b6001600288020188555050505b50505050505050565b7f5075626c6963204d696e7420436c6f7365640000000000000000000000000000600082015250565b60006128eb601283611f45565b91506128f6826128b5565b602082019050919050565b6000602082019050818103600083015261291a816128de565b9050919050565b7f496e76616c6964207175616e7469747900000000000000000000000000000000600082015250565b6000612957601083611f45565b915061296282612921565b602082019050919050565b600060208201905081810360008301526129868161294a565b9050919050565b600061299882611fec565b91506129a383611fec565b92508282026129b181611fec565b915082820484148315176129c8576129c761255f565b5b5092915050565b7f6e6f7420656e6f75676820657468657200000000000000000000000000000000600082015250565b6000612a05601083611f45565b9150612a10826129cf565b602082019050919050565b60006020820190508181036000830152612a34816129f8565b9050919050565b7f546f6b656e20646f6573206e6f74206578697374000000000000000000000000600082015250565b6000612a71601483611f45565b9150612a7c82612a3b565b602082019050919050565b60006020820190508181036000830152612aa081612a64565b9050919050565b600081905092915050565b60008154612abf8161252e565b612ac98186612aa7565b94506001821660008114612ae45760018114612af957612b2c565b60ff1983168652811515820286019350612b2c565b612b0285612639565b60005b83811015612b2457815481890152600182019150602081019050612b05565b838801955050505b50505092915050565b6000612b4082611f3a565b612b4a8185612aa7565b9350612b5a818560208601611f56565b80840191505092915050565b7f2e6a736f6e000000000000000000000000000000000000000000000000000000600082015250565b6000612b9c600583612aa7565b9150612ba782612b66565b600582019050919050565b6000612bbe8285612ab2565b9150612bca8284612b35565b9150612bd582612b8f565b91508190509392505050565b7f4f776e61626c653a206e6577206f776e657220697320746865207a65726f206160008201527f6464726573730000000000000000000000000000000000000000000000000000602082015250565b6000612c3d602683611f45565b9150612c4882612be1565b604082019050919050565b60006020820190508181036000830152612c6c81612c30565b9050919050565b7f4f776e61626c653a2063616c6c6572206973206e6f7420746865206f776e6572600082015250565b6000612ca9602083611f45565b9150612cb482612c73565b602082019050919050565b60006020820190508181036000830152612cd881612c9c565b9050919050565b600081519050919050565b600082825260208201905092915050565b6000612d0682612cdf565b612d108185612cea565b9350612d20818560208601611f56565b612d2981611f80565b840191505092915050565b6000608082019050612d496000830187612081565b612d566020830186612081565b612d636040830185612117565b8181036060830152612d758184612cfb565b905095945050505050565b600081519050612d8f81611eab565b92915050565b600060208284031215612dab57612daa611e75565b5b6000612db984828501612d80565b91505092915050565b7f4e487b7100000000000000000000000000000000000000000000000000000000600052601260045260246000fdfea2646970667358221220be4c26d2d91fd2555bf33f59a9f8a94d87ca86ea299716caa8d8287ca1282a2864736f6c63430008110033",
    "linkReferences": {},
    "deployedLinkReferences": {}
}